:0100000000FF
:0100010000FE
:0100020007F6
:0100030007F5
:0100040007F4
:0100050007F3
:0100060007F2
:0100070007F1
:0100080007F0
:0100090007EF
:01000A0007EE
:01000B0007ED
:01000C0007EC
:01000D0000F2
:01000E0000F1
:01000F0000F0
:0100100007E8
:0100110007E7
:0100120000ED
:0100130000EC
:0100140000EB
:0100150000EA
:0100160000E9
:0100170000E8
:0100180000E7
:0100190000E6
:01001A0000E5
:01001B0007DD
:01001C0007DC
:01001D0000E2
:01001E0007DA
:01001F0007D9
:0100200007D8
:0100210007D7
:0100220007D6
:0100230007D5
:0100240007D4
:0100250007D3
:0100260007D2
:0100270007D1
:0100280007D0
:0100290007CF
:01002A0007CE
:01002B0007CD
:01002C0007CC
:01002D0007CB
:01002E0000D1
:01002F0007C9
:0100300007C8
:0100310007C7
:0100320007C6
:0100330007C5
:0100340007C4
:0100350007C3
:0100360007C2
:0100370007C1
:0100380007C0
:0100390007BF
:01003A0000C5
:01003B0007BD
:01003C0007BC
:01003D0000C2
:01003E0007BA
:01003F0007B9
:0100400007B8
:0100410007B7
:0100420000BD
:0100430000BC
:0100440000BB
:0100450007B3
:0100460007B2
:0100470007B1
:0100480007B0
:0100490000B6
:01004A0007AE
:01004B0007AD
:01004C0000B3
:01004D0007AB
:01004E0007AA
:01004F0007A9
:0100500007A8
:0100510007A7
:0100520007A6
:0100530000AC
:0100540007A4
:0100550007A3
:0100560007A2
:0100570007A1
:0100580000A7
:01005900079F
:01005A00079E
:01005B0000A4
:01005C00079C
:01005D00079B
:01005E00079A
:01005F000799
:010060000798
:010061000797
:01006200009D
:010063000795
:010064000794
:010065000793
:010066000792
:010067000098
:010068000790
:01006900078F
:01006A000095
:01006B00078D
:01006C00078C
:01006D00078B
:01006E00078A
:01006F000090
:01007000008F
:01007100008E
:010072000786
:010073000785
:010074000784
:010075000783
:010076000089
:010077000781
:010078000780
:010079000086
:01007A00077E
:01007B00077D
:01007C00077C
:01007D00077B
:01007E00077A
:01007F000779
:01008000007F
:010081000777
:010082000776
:010083000775
:010084000774
:01008500007A
:010086000772
:010087000771
:010088000077
:01008900076F
:01008A00076E
:01008B00076D
:01008C00076C
:01008D00076B
:01008E00076A
:01008F000070
:010090000768
:010091000767
:010092000766
:010093000765
:01009400006B
:010095000763
:010096000762
:010097000068
:010098000760
:01009900075F
:01009A00075E
:01009B00075D
:01009C000063
:01009D000062
:01009E000061
:01009F000759
:0100A0000758
:0100A1000757
:0100A2000756
:0100A300005C
:0100A4000754
:0100A5000753
:0100A6000059
:0100A7000751
:0100A8000750
:0100A900074F
:0100AA00074E
:0100AB00074D
:0100AC00074C
:0100AD00074B
:0100AE00074A
:0100AF000749
:0100B0000748
:0100B1000747
:0100B200004D
:0100B3000745
:0100B4000744
:0100B5000743
:0100B6000742
:0100B7000741
:0100B8000740
:0100B900073F
:0100BA00073E
:0100BB00073D
:0100BC00073C
:0100BD00073B
:0100BE00073A
:0100BF000739
:0100C0000738
:0100C1000737
:0100C2000736
:0100C300003C
:0100C4000734
:0100C5000733
:0100C6000039
:0100C7000038
:0100C8000037
:0100C9000036
:0100CA000035
:0100CB000034
:0100CC000033
:0100CD000032
:0100CE000031
:0100CF000729
:0100D0000728
:0100D100002E
:0100D200002D
:0100D300002C
:0100D4000724
:0100D5000723
:0100D6000722
:0100D7000721
:0100D8000720
:0100D900071F
:0100DA00071E
:0100DB00071D
:0100DC00071C
:0100DD00071B
:0100DE00071A
:0100DF000020
:0100E000001F
:00000001FF
